:100000000EC0189518951895189518951895189567
:1000100018951895189518951895189518958FE5B1
:100020008DBFC8E3E0E24E2E82E08EBFD2E0F2E068
:100030005F2EA89584B7082E877F84BF88E1992713
:1000400081BD91BDEEEFF1E0A0E6B0E088278D9391
:100050003197E9F7662489E0809369008AE280930A
:100060006A0084E580936B008EE780936C0082E8E1
:1000700086B980E887B9BA98B298B99AC19AB898FF
:10008000B09A77B5726077BDA7E4B0E00C9100FB41
:100090000EF401C0F9CF77B5746077BD8EE681BFED
:1000A00083E080BF80E68CBD70E07FBD70E07EBDE8
:1000B00070E07BBD7FEF7DBDBC9A789480E090E0DE
:1000C000AFE6B0E08D939C93A9E6B0E08C91ADE6ED
:1000D000B0E08D9388278C9380E080936800C1986E
:1000E00084EF91E0D7D1C19AB09B6BC0B29B43C063
:1000F000C19880E090E0A6E6B0E08D939C93A6E6E0
:10010000B0E00D911C91043650E0150710F009F095
:1001100010C0B29906C084E690E0A6E6B0E08D93E8
:100120009C9385E090E0B6D1A6E6B0E066D108F4F5
:10013000E6CFC19A80E090E0A6E6B0E08D939C9374
:10014000A6E6B0E00D911C91043650E0150710F0C2
:1001500009F010C0B29906C084E690E0A6E6B0E0CF
:100160008D939C9385E090E095D1A6E6B0E045D1D3
:1001700008F4E6CFBBCF80E090E0A6E6B0E08D9338
:100180009C93A6E6B0E00D911C910A3F50E0150744
:1001900010F009F010C0B09906C08AEF90E0A6E612
:1001A000B0E08D939C9384E090E074D1A6E6B0E03B
:1001B00024D108F4E6CFC19885E090E06BD1C19AD4
:1001C00093CF86E990E066D1C198B0991BC0A2E6B2
:1001D000B0E0BA93AA9383E0D2018C9381E070D10E
:1001E00081D0249681E068D1A2E6B0E0BA93AA93C8
:1001F000ADE6B0E0BA93AA93B9D0249683E090E03C
:1002000049D1E3CFC19A0BB5003009F062C080E05C
:1002100090E0A6E6B0E08D939C93A6E6B0E00D9149
:100220001C91063950E0150710F009F052C081E02A
:1002300090E030D1B09948C0B09BFECFAFE6B0E0BF
:10024000DCD0AFE6B0E00D911C9143E050E0042318
:100250001523AFE6B0E00D931C93AFE6B0E0AD9090
:10026000BD90A9E6B0E0AA0DBB1D8C91ADE6B0E053
:100270008D9388278C9384EF91E00CD180E090E0FF
:10028000A4E6B0E08D939C93AFE6B0E04D915C9115
:10029000A4E6B0E00D911C910417150710F009F0C9
:1002A0000DC0C19884E690E0F5D0C19A88EC90E04A
:1002B000F1D0A4E6B0E0A1D008F4E6CF86E990E062
:1002C000A6E6B0E08D939C93A6E6B0E096D008F445
:1002D000A4CF70E07BBD80E08093680088EC90E064
:1002E000D9D002CF80E090E0A2E7B0E08D939C935C
:1002F00080E08093710000917100013310F009F0EB
:1003000021C0A2E7B0E00D911C910F931F9307B19C
:10031000007FA881B9818C9190E0890F082707B9E7
:10032000D5D0482F592F1F910F91040F151FA2E709
:10033000B0E00D931C93A1E7B0E08C918F5F8C939C
:1003400008F4D9CFA2E7B0E00D911C9142E350E050
:100350007ED0A2E7B0E04D935C93A2E7B0E08D9130
:100360009C91AA81BB818D939C930895A881B981AA
:100370004D915C91AA81BB810D911C9104171507C9
:1003800081E008F080E08F9300916800083C81E0F4
:1003900008F080E09F918923882309F409C0A8E62A
:1003A000B0E08C918F5F8C93A8E6B0E08C918BBD10
:1003B000A881B9814D915C91AA81BB810D911C915D
:1003C0000417150780E010F009F081E08F93009189
:1003D0006800003080E010F009F081E09F918923EF
:1003E000882309F409C080916800815080936800D7
:1003F000A8E6B0E08C918BBD0895ED91FC91EF5F84
:10040000FF4FFC93EE93089500FC10D0089503D0A5
:100410001ED001F8F9CF0024E89457FF02C009D09C
:10042000689400F80BD010F80124089502D009D088
:100430000895509540954F5F5F4F0895E89417FFDA
:100440000895009510950F5F1F4F68940895352FFC
:10045000242FE894452B11F468940895512F402FD0
:100460000027112780E1440F551F001F111F021B99
:10047000130B416018F4020F131F4E7F8A9599F7F2
:1004800008953197F1F70895689462F80895E89413
:1004900062F80895EF93FF93EE27E82BE92B31F0F4
:1004A000E0EAFFE03197F1F70197D1F7FF91EF9183
:1004B0000895481A590A0895481A8827580A08952D
:1004C00099275A924A92480E591E0895369A36999B
:0E04D000FECF369A3699FECF84B195B10895CD
:00000001FF
